:020000040800F2
:10000000700400200101000887110008510D00084C
:10001000851100086D010008F512000800000000BD
:100020000000000000000000000000005D12000859
:100030006F01000800000000891100085F1200082D
:100040001B0100081B0100081B0100081B01000820
:100050001B0100081B0100081B0100081B01000810
:100060001B0100081B0100081B0100081B01000800
:100070001B0100081B0100081B0100081B010008F0
:100080001B0100081B0100081B0100081B010008E0
:100090001B0100081B0100081B0100081B010008D0
:1000A0001B0100081B0100081B0100081B010008C0
:1000B0001B0100081B010008000000001B010008D4
:1000C0001B01000800000000000000008D11000866
:1000D000000000001B0100081B01000800000000D8
:1000E0001B0100081B0100081B010008DFF80CD0F1
:1000F00000F02AF80048004735130008700400207B
:100100000648804706480047FEE7FEE7FEE7FEE7B1
:10011000FEE7FEE7FEE7FEE7FEE7FEE7AD120008BA
:10012000ED000008D2B201E000F8012B491EFBD21D
:1001300070470022F6E710B513460A4604461946F2
:10014000FFF7F0FF204610BD064C074D06E0E068C3
:1001500040F0010394E8070098471034AC42F6D30E
:10016000FFF7C8FF3827000858270008FEE7704748
:1001700010B590F821100024022903D004218163D6
:1001800001243DE001680A6822F00E020A6001685D
:100190000A6822F001020A601A4A0168914201D1FC
:1001A000012121E0174A1432914201D110211BE0B4
:1001B000144A2832914201D1891515E0114A3C3286
:1001C000914201D189140FE00E4A5032914202D17E
:1001D0004FF4803108E00B4A6432914202D14FF46F
:1001E000801101E04FF08071064A083A5160012108
:1001F00080F82110002180F82010416B01B1884760
:10020000204610BD0800024070B5044600F0F4F826
:100210000546601C02D004480078044400F0ECF865
:10022000401BA042FAD370BD080000202DE9F84F12
:10023000DFF89C91002409F1040A0AF1040B23461B
:100240000F270BF1040EBBE00125A5402A40AA426E
:1002500076D1DFF880C14E68A6EB0C0866452BD03E
:100260000DDC032E34D005DC36B3012E19D0022E5E
:100270002FD11BE0112E16D0122E2AD119E0B8F57D
:10028000881F19D006DCB8F5803F15D0B8F5801F5F
:100290001FD111E0B8F5001F0ED0B8F5041F18D11A
:1002A0000AE0CB6815E0CB681B1D12E0CB68083371
:1002B0000FE0CB680C330CE08B682BB1012B4FF0B7
:1002C000080303D0456104E0042302E0056100E077
:1002D0000023FF2A01D8064601E000F104064FEA98
:1002E000840501D9A5F12005D6F8008007FA05FCA0
:1002F00028EA0C0803FA05F548EA0508C6F8008064
:100300004D68ED005BD5344DAE6946F00106AE6137
:10031000AD6924F0030605F0010500952F4D06EBAD
:10032000050CDCF80850A607360F07FA06F825EA90
:100330000805DFF8AC80404503D14FF0000810E01D
:100340003DE0DFF8A080404502D14FF0010808E011
:10035000DFF89480404502D14FF0020801E04FF0F1
:10036000030808FA06F848EA0508CCF808804D6842
:10037000D9F80060ED034D4601D5164300E09643E1
:100380002E604D68DAF80060AD03554601D516437E
:1003900000E096432E604D68DBF80060ED025D469C
:1003A00001D5164300E096432E604D68DEF80060EC
:1003B000AD02754601D5164300E096432E60641CDD
:1003C0000A6832FA04F57FF43FAFBDE8F88F000009
:1003D0000004014000001110001002400000014024
:1003E00000080140000C0140001001400AB1016109
:1003F00070470904FBE7000001488068704700006F
:10040000080000200248816802781144816070472A
:1004100008000020074810B5016841F01001016094
:10042000032000F075F8002000F006F800F024F832
:10043000002010BD0020024070B50D4D04464FF461
:100440007A712878B1FBF0F00A490968B1FBF0F045
:1004500000F06AFC48B9102C07D200222146501E39
:1004600000F036F800206C6070BD012070BD000007
:1004700008000020140000200C4808B5816941F0F4
:1004800001018161816901F001010091C16941F0BF
:100490008051C161C06900F08050009004484168FB
:1004A00021F0E06141F08061416008BD0010024030
:1004B00000000140002809DB00F01F0201219140EB
:1004C0004009800000F1E020C0F8001170470000F2
:1004D000F0B40E4B1B680C46C3F30223C3F10705AF
:1004E000042D00D90425191D072901D2002300E09D
:1004F000DB1E012606FA05F1491E214099409E4067
:10050000761E16403143F0BC00F0F5BE0CED00E065
:10051000064900F0070208684FF6FF03184040EA5A
:100520000220034A10430860704700000CED00E011
:100530000000FA052DE9F0470F46050061D0434E53
:10054000306800F00700B84209D2306820F0070098
:1005500038433060306800F00700B84251D1286855
:100560003B4C810712D5400703D5606840F4E0603A
:1005700060602878000703D5606840F460506060D0
:100580006068A96820F0F000084360602878C00720
:1005900028D06868012810D02168022810D0890767
:1005A00000292EDA616821F0030101436160FFF741
:1005B00023FF804641F288390DE021688903EFE787
:1005C0008901EDE7FFF718FFA0EB0801494502D9C3
:1005D0000320BDE8F0876068696800F00C00B0EBAC
:1005E000810FEFD1306800F00700B8420BD93068B6
:1005F00020F0070038433060306800F00700B84250
:1006000001D00120E5E72878400705D56068E96852
:1006100020F4E060084360602878000706D5606831
:10062000296920F4605040EAC100606000F018F8C9
:100630006168084AC1F30311515CC840064908606B
:1006400006480068FFF7F8FE0020C2E700200240DD
:100650000010024028270008140000200C00002091
:1006600012A185B00FC98DE80F0014A0144A0068CC
:1006700004905168134801F00C03042B10D0082B90
:100680000ED1C1F38343C9031DF803000AD5516895
:1006900004AAC1F34041515C0A4A5043B0FBF1F057
:1006A00005B0704708494843FAE700000203040513
:1006B000060708090A0B0C0D0E0F101001020000AE
:1006C0000010024000127A0000093D002DE9F84FA9
:1006D000040070D02078C04DC00749D06868C0F3CE
:1006E0008100012807D06868C0F38100022809D181
:1006F0006868C00306D52868800339D5606800287B
:10070000E7D035E06068B0F5803F0BD010B1B0F5B0
:10071000A02F11D0286820F480302860286820F4A9
:10072000802002E0286840F480302860606890B142
:10073000FFF762FE06460AE0286840F48020286041
:10074000F0E700BFFFF758FE801B642873D82868C5
:100750008003F7D50CE0FFF74FFE064605E000BF2B
:10076000FFF74AFE801B6428F0D828688003F7D47E
:1007700020789A4E80074FF001094FF0000839D5D4
:10078000686810F00C0F07D06868C0F38100022879
:1007900009D16868C00306D42868800714D5206989
:1007A000012808D110E02069B0B1C6F80090FFF729
:1007B00023FE074605E00AE1FFF71EFEC01B0228E4
:1007C000C4D828688007F7D52868616920F0F80048
:1007D00040EAC10028600DE0C6F80080FFF70CFE7B
:1007E000074604E0FFF708FEC01B022823D828684C
:1007F0008007F7D4207800072CD57948A169D9B1B2
:10080000C0F80090FFF7F8FD074604E0FFF7F4FD9D
:10081000C01B02280FD8686A8007F7D571484FF4CB
:10082000FA510068B0FBF1F0009000BF0098411E43
:100830000091FAD20EE080E0C0F80080FFF7DCFD06
:10084000074604E0FFF7D8FDC01B022875D8686A88
:100850008007F7D42078400760D5E8690027C000FA
:1008600008D4E86940F08050E861E869012700F0A9
:10087000805000905C480168C90513D40168834624
:1008800041F480710160FFF7B7FD824606E000BFCA
:10089000FFF7B2FDA0EB0A0064284ED8DBF8000099
:1008A000C005F5D5E06801280AD008B1052813D0A5
:1008B000286A20F001002862286A20F0040002E083
:1008C000286A40F001002862E06841F2883B98B154
:1008D000FFF792FD82460BE0286A40F00400286290
:1008E000EEE700BFFFF788FDA0EB0A0159455AD893
:1008F000286A8007F6D50CE0FFF77EFD824605E00A
:10090000FFF77AFDA0EB0A0159454CD8286A800709
:10091000F6D41FB1E86920F08050E861E06988B33F
:100920006968C1F38101022944D00228C6F86080B9
:1009300004D0FFF761FD044638E034E0FFF75CFDCA
:10094000074604E0FFF758FDC01B02282BD8286893
:100950008001F7D4206AB0F5803F05D16868A168AE
:1009600020F4003008436860D4E90801084369684E
:1009700021F4741108436860C6F86090FFF73CFDED
:10098000044606E025E000BFFFF736FD001B022805
:1009900009D828688001F7D51BE000BFFFF72CFDC0
:1009A000001B022802D90320BDE8F88F28688001C7
:1009B000F4D40EE00128F7D06868226A00F4803190
:1009C000914204D1616A00F47010884201D0012084
:1009D000EAE70020E8E70000001002400000424281
:1009E0008004424214000020007000407047000064
:1009F00038B50446006842688168C9434B0606D58D
:100A0000CB0704D1D3435B0601D4216C05E08B07EF
:100A100008D4D3431B0605D4616C01B02046BDE861
:100A2000304008478B0601D54B0646D4D3439B067E
:100A300043D44B060AD494F85130032B3ED0636D57
:100A400043F004036365C36883680093890609D48F
:100A5000616D41F00101616581680091016821F0DB
:100A600040010160606D002827D02068416821F0B6
:100A7000E0014160012084F85100900722D02068F5
:100A8000416821F003014160104DE06C40B14563C5
:100A9000E06CFFF76DFB18B1606D40F040006065E1
:100AA000A06C002809D04563A06CFFF761FB00280B
:100AB00003D0606D40F04000606538BDC16880685B
:100AC000009038BD2046FFF791FF38BD991100080E
:100AD00070B5040005D00025A56294F8510010B14E
:100AE00006E0012070BD84F85050204600F02EF83A
:100AF000022084F851002068016821F04001016063
:100B0000D4E901010843D4E90312114308436169A0
:100B10000843218B01F400710843E1690843216A0D
:100B20000843A16A084321680860A069042101EA1A
:100B30001040216848602068C16921F40061C161EA
:100B40006565012084F85100002070BD30B585B086
:100B50000024009401940294039400681849884288
:100B60002BD11848816941F480518161816901F478
:100B700080510491816941F0040181618069124DC5
:100B800000F004000490A0200090022001900320B7
:100B9000039069462846FFF749FB4020CDE9000451
:100BA000694628460294FFF741FB002211462320A4
:100BB000FFF78EFC2320FFF77DFC05B030BD000061
:100BC0000030014000100240000801402DE9F84FBC
:100BD000044690F8500000271D4616468946012815
:100BE0000DD04FF0010B84F850B0FFF705FC8046A4
:100BF00094F85100BA46012804D002278EE0022062
:100C0000BDE8F88FB9F1000F7DD0002E7BD0032016
:100C100084F85100C4F854A0C4F83090A686E68643
:100C2000C4F838A0A4F83CA0A4F83EA0C4F844A09E
:100C3000C4F840A0A068B0F5004F04D12068016856
:100C400041F48041016020680168490603D40168CD
:100C500041F040010160E068B0F5006F606803D0CA
:100C600030B3012E24D040E008B1012E1CD1206BFE
:100C700021680088C86006E020688168890709D576
:100C8000216B0988C160206B801C2063E08E401EB0
:100C9000E08609E0FFF7B0FBA0EB0800A84202D312
:100CA000681C01D031E07DB3E08E0028E4D11FE064
:100CB000206B21680078087306E020688168890746
:100CC00009D5216B09780173206B401C2063E08EED
:100CD000401EE08609E0FFF78FFBA0EB0800A8426A
:100CE00002D3681C01D010E075B1E08E0028E4D179
:100CF00042462946204600F057FA08B12020606598
:100D0000A06820B107E008E0FFE7032706E02068BD
:100D1000C16880680090606D00B1012784F851B00F
:100D200084F850A038466BE710B5401EB0F1807FC4
:100D300001D3012010BD4FF0E02460610F21601746
:100D400000F0D9FA0020A06107202061002010BD2A
:100D5000FEE700001FB500F011F9704C00220421DD
:100D60002046FFF743FB0520FFF74EFA012204213E
:100D70002046FFF73BFB012000F082F94FF47A7028
:100D8000FFF742FACB2000F07BF965A1D1E9000121
:100D9000CDE900010521684600F084F9CF2000F07C
:100DA0006FF961A0032100680090684600F07AF9AD
:100DB000E82000F065F95DA0032100680090684616
:100DC00000F070F9EA2000F05BF900240221684687
:100DD000009400F067F9ED2000F052F954A00421CE
:100DE00000680090684600F05DF9F72000F048F9CF
:100DF00050A0012100680090684600F053F9C0201F
:100E000000F03EF94CA0012100680090684600F017
:100E100049F9C12000F034F948A001210068009090
:100E2000684600F03FF9C52000F02AF944A00221ED
:100E300000680090684600F035F9C72000F020F9FE
:100E400040A0012100680090684600F02BF9362090
:100E500000F016F93CA0012100680090684600F0FF
:100E600021F93A2000F00CF938A001210068009027
:100E7000684600F017F9B12000F002F934A0022111
:100E800000680090684600F00DF9B62000F0F8F810
:100E900030A0032100680090684600F003F9F220BA
:100EA00000F0EEF801216846009400F0FBF82620DF
:100EB00000F0E6F828A0012100680090684600F0E4
:100EC000F1F8E02000F0DCF824A00FC88DE80F0056
:100ED0000F21684600F0E6F8E12000F0D1F823A1E8
:100EE0000FC98DE80F000F21684600F0DBF81120D4
:100EF00000F0C6F87820FFF787F9292000F0C0F845
:100F0000362000F0BDF810A001210068009068466E
:100F100000F0C8F8BDE81F4000F064B800080140C8
:100F2000392C00340200000000C130008500780038
:100F30006403128120000000230000001000000064
:100F40003E28000086000000480000005500000018
:100F50000018000008822700010000000F312B0C50
:100F60000E084EF1370710030E090000000E14039F
:100F7000110731C148080F0C31360F000022102133
:100F80000148FFF733BA000000080140F8B50746F2
:100F90001C4615460E462A2000F072F8380A8DF8D5
:100FA00000008DF80170280A8DF802008DF80350BA
:100FB0000421684600F076F82B2000F061F8300A32
:100FC0008DF800008DF80160200A8DF802008DF880
:100FD00003400421684600F065F8BDE8F8402C2085
:100FE00000F04EB8012210210148FFF7FFB90000C0
:100FF000000801400FB42DE9FF5FC3F307264A1E26
:10100000324494B2DFB2DDE913A9421E3A4492B2EF
:101010002346FFF7BBFF00252CE0109812992038DB
:1010200000FB0650002431F810804FEA1A2002908D
:101030000AF0FF0001904FEA192009F0FF0B009021
:1010400015E000BF08FA04F0000406D502988DF8F8
:101050000C0001988DF80D0004E000988DF80C004C
:101060008DF80DB0022103A800F01CF8641CA74203
:10107000E8D86D1CAE42D0D8BDE8FF1F5DF814FB68
:1010800001B5002208210548FFF7B0F94FF0FF3302
:10109000012269460248FFF799FD08BD000801409A
:1010A000180000202DE9F0410C46064601220821D7
:1010B0000C48FFF79BF94FF400474FF0FF380DE065
:1010C000BC4201D9384600E0204685B243462A4654
:1010D00031460548FFF77AFD2E44641B002CEFD102
:1010E000BDE8F08100080140180000202DE9FE4F06
:1010F0009846DDE90DA914460E460546DDF830B0E8
:10110000FFF73CFF08F0FF0719E07819F0280AD331
:10111000C8F3072081198EB200253044B0F5A07FB6
:1011200010D2202A0AD0CDF800B0CDE901A943465B
:1011300031462846FFF75EFF781985B2641C227895
:10114000002AE2D1BDE8FE4FFFF74CBF0C480B4927
:101150004FF4007201604FF48271416000218160A0
:10116000C1600161C0E905120822C0E9072141629E
:1011700081620A21C162FFF7ABBC00000030014070
:1011800018000020FEE77047704700000148FFF795
:101190002FBC00001800002010B5406A0021C18754
:1011A000C186FFF723FC10BD38B50B4600920446FC
:1011B0000022802100F008F8002804D0606D40F083
:1011C00020006065032038BD2DE9F0411D4617461B
:1011D0000E460446DDF8188008E0681C06D0FFF7CC
:1011E0000BF9A0EB0800A8420BD255B1206880682B
:1011F00036EA000030D00020B842EED10020BDE831
:10120000F0812068416821F0E00141606068B0F53C
:10121000827F0BD1A068B0F5004F02D0B0F5806F8F
:1012200004D12068016821F040010160A06AB0F596
:10123000005F09D12068016821F400510160206835
:10124000016841F400510160012084F85100002040
:1012500084F850000320D2E70120CDE77047FFF764
:10126000D1B830B58FB028216846FEF762FF14214F
:101270000AA8FEF75EFF01200225049000951020C9
:1012800005900024CDE9075468460994FFF71EFA3B
:101290000F20CDE90A056802CDE90C4000210AA81B
:1012A0000E94FFF747F90FB030BD00000D480168FC
:1012B00041F00101016041680B4A11404160016841
:1012C0000A4A11400160016821F4802101604168EF
:1012D00021F4FE0141604FF41F0181600449C00305
:1012E00008607047001002400000FFF8FFFFF6FEA4
:1012F00008ED00E0FEE70907090E002804DB00F115
:10130000E02080F80014704700F00F0000F1E020AA
:1013100080F8141D704702E008C8121F08C1002A97
:10132000FAD170477047002001E001C1121F002A66
:10133000FBD1704786B0FFF76DF8FFF792FF0024EE
:1013400018480094019402940394816941F00401C7
:1013500081618069144D00F00400049022461C2134
:101360002846FFF743F81C2000900120CDE9010436
:101370000220039069462846FEF758FFFFF7E6FE75
:10138000FFF7E8FC1F214FF4FC60CDE9010107489D
:1013900007A241680091002103680846FFF7A6FEF6
:1013A000FEE700000010024000080140000000209D
:1013B0005374616E6B657669636820416E64726513
:1013C0007920536572676565766963682067726F17
:1013D00075702036353130303100000000000000DB
:1013E00000000000000000000000000000000000FD
:1013F00000000000000000000000000000000000ED
:1014000000000000000000000000000000000000DC
:10141000E003E003E003E003E003E003E003E003B4
:10142000C003C003C001C001C001C001C001000071
:1014300000000000E003E003E00300000000000003
:10144000000000003C1E3C1E3C1E3C1E3C1E3C1E80
:101450003C1E000000000000000000000000000032
:10146000000000000000000000000000000000007C
:101470000000000000000000CE01CE03DE039E034A
:101480009C039C07FF3FFF7F3807380F780F780FCA
:10149000780EFFFFFFFFF01EF01CE01CE03CE03D7B
:1014A000E03900000000000000000000FC03FE0F17
:1014B000EE1FE01EE01EE01EE01EE01FE00FE00752
:1014C000F003FC01FE01FE01FE01FE01FE01FE0132
:1014D000FE3DFC3FF00FE001E001000000000000D5
:1014E000033E07F78FE78EE79EE3BCE3B8E7F8E734
:1014F000F0F7E03FC001FF03FF07F307F30FF31E10
:10150000F33CF338F3787FF03FE000000000000088
:1015100000000000E007F80F780F781F781F781F91
:10152000780FF00FE00F801FC37FC3FBE7F3F7F1E5
:10153000F7F0FFF07FF03EF87F7CFF3FEF1F0000E9
:101540000000000000000000E003E003E003E0030F
:10155000E003C003C0010000000000000000000024
:10156000000000000000000000000000000000007B
:101570000000000000000000000000003F007C00B0
:10158000F001E001C003C00780078007800F000F53
:10159000000F000F000F000F000F800F8007800763
:1015A000C007C003E001F0017C003F000F00000015
:1015B000007E001FC007C003E001F001F000F00052
:1015C000F800780078007800780078007800F8005B
:1015D000F000F000F001E001C003C007001F007E32
:1015E00000780000E003C003C001CE39FF3F7F3F19
:1015F00020037003F807780F3C1F38060000000036
:1016000000000000000000000000000000000000DA
:1016100000000000000000000000000000000000CA
:1016200000000000C001C001C001C001C001C00134
:10163000C001FFFFFFFFC001C001C001C001C00128
:10164000C0010000000000000000000000000000D9
:10165000000000000000000000000000000000008A
:101660000000000000000000000000000000E00397
:10167000E003E003E003E001E001E001C0018003DA
:10168000000000000000000000000000000000005A
:10169000000000000000FE3FFE3F000000000000D0
:1016A000000000000000000000000000000000003A
:1016B000000000000000000000000000000000002A
:1016C000000000000000000000000000000000001A
:1016D000000000000000E003E003E003E00300007E
:1016E00000000000000000000F000F001E001E00A0
:1016F0003C003C0078007800F000F000E001E001E0
:10170000C003C00380078007000F000F001E001EEB
:10171000003C003C0078007800F00000F007F80F73
:101720007C1F3E3E1E3C1F7C1F7C0F780F780F787D
:101730000F780F780F780F781F7C1F7C1E3C3E3E81
:101740007C1FF80FF0070000000000000000000000
:10175000F000F007F03FF03FF001F001F001F00180
:10176000F001F001F001F001F001F001F001F001F1
:10177000F001F001F001FF3FFF3F0000000000001A
:1017800000000000E00FF83F7C3C3C003E003E00C3
:101790003E003C003C007C00F800F001E003C00784
:1017A0008007000F001E003E003CFE3FFE3F000091
:1017B0000000000000000000F00FF81F7C1C3E003D
:1017C0003E003E003C003C00F800F00FF80F7C00AB
:1017D0003E001E001E001E001E003E007C1CF81F66
:1017E000E01F000000000000000000007800F8008A
:1017F000F800F801F803F807F807780F781E781E4C
:10180000783C78787878FFFFFFFF780078007800E0
:101810007800780078000000000000000000000060
:10182000FC1FFC1FFC1F001E001E001E001E001ED1
:10183000E01FF81FFC007C003E003E001E003E0042
:101840003E003C007C1CF81FE01F00000000000070
:1018500000000000FC01FE078E0F001F001E003E6E
:10186000003C003CF83DFC3F3E7F1F7E0F3C0F3CA0
:101870000F3C0F3C0F3E1F1E3E1FFC0FF0030000ED
:101880000000000000000000FF3FFF3FFF3F0F008F
:101890001E001E003C0038007800F000F000E0015F
:1018A000E001C003C0038007800F800F000F001FFE
:1018B000001F00000000000000000000F807FC0FFF
:1018C0003E1F1E1E1E3E1E3E1E1E3C1FF80FF00732
:1018D000F80FFC1E3E3E1F3C1F7C0F7C0F7C1F3C04
:1018E0003E3FFC1FF0070000000000000000000069
:1018F000F007F80F7C1E3E3C1E3C1F7C1F7C1F7CAB
:101900001F7C1F3C3F3EFF1FEF071F001E001E00F5
:101910003E003C00F838F03FE01F000000000000EF
:1019200000000000000000000000000000000000B7
:10193000E003E003E003E00300000000000000001B
:10194000000000000000E003E003E003E00300000B
:101950000000000000000000000000000000000087
:1019600000000000E003E003E003E00300000000EB
:1019700000000000000000000000E003E003E003BE
:10198000E003E001E001E001C0038003000000008B
:10199000000000000000000003000F003F00FC00FA
:1019A000F003C00F003F00FE003FC00FF003FC003B
:1019B0003F000F00030000000000000000000000D6
:1019C0000000000000000000000000000000000017
:1019D00000000000FFFFFFFF000000000000FFFF0D
:1019E000FFFF0000000000000000000000000000F9
:1019F00000000000000000000000000000000000E7
:101A000000E000F8007E801FE007F8017E001F0064
:101A10007E00F801E007801F007E00F800E0000073
:101A20000000000000000000F01FFC3F3E381F389F
:101A30001F381E001E003C007800F000E001C003CB
:101A4000C003C007C007000000000000C007C007B7
:101A5000C00700000000000000000000F803FE0FB7
:101A60001E1F0F3E7F3CFF78EF79C773C7F38FF3DC
:101A70008FF38FF39FF39FF3FF73FF7BF779003CA6
:101A80001C1FFC0FF8030000000000000000000015
:101A9000000000000000E003E003F007F007F0079B
:101AA000780F780F7C0E3C1E3C1E3E3CFE3FFF3FF5
:101AB0001F780F780FF007F007F00000000000001B
:101AC00000000000000000000000F83FFC3F3E3C2A
:101AD0001E3C1E3C1E3C3E3C7C3CF03FF83F7E3CA6
:101AE0001F3C1F3C0F3C0F3C1F3CFE3FF83F0000DB
:101AF0000000000000000000000000000000FF01E6
:101B0000FF07871F003E003C007C007800780078CB
:101B100000780078007C007C003E003F831FFF07B8
:101B2000FF010000000000000000000000000000B5
:101B30000000F07FFC7F7E781F781F780F780F7889
:101B40000F780F780F780F780F780F781F781E783E
:101B50007E78F87FE07F00000000000000000000B9
:101B6000000000000000FF3FFF3F003E003E003E3F
:101B7000003E003E003EFE3FFE3F003E003E003E77
:101B8000003E003E003EFF3FFF3F0000000000001F
:101B900000000000000000000000FF1FFF1F001EEB
:101BA000001E001E001E001E001EFF1FFF1F001E45
:101BB000001E001E001E001E001E001E001E000053
:101BC0000000000000000000000000000000FE0314
:101BD000FF0F871F003E007C007C007800F800F8B3
:101BE0007FF87FF80F780F7C0F7C0F3E8F1FFF0F61
:101BF000FE030000000000000000000000000000E4
:101C000000001F7C1F7C1F7C1F7C1F7C1F7C1F7C97
:101C10001F7CFF7FFF7F1F7C1F7C1F7C1F7C1F7C26
:101C20001F7C1F7C1F7C00000000000000000000E3
:101C3000000000000000FF3FFF3FE003E003E0037F
:101C4000E003E003E003E003E003E003E003E0037C
:101C5000E003E003E003FF3FFF3F0000000000005F
:101C600000000000000000000000FC1FFC1F7C00C2
:101C70007C007C007C007C007C007C007C007C0084
:101C80007C007C0078007800F838F03FC03F00000E
:101C900000000000000000000000000000001F3CE9
:101CA0001E3C3C3C783CF03CE03DE03FC03F803F88
:101CB000C03FE03FF03DF03C783C7C3C3E3C1F3C6C
:101CC0000F3C0000000000000000000000000000C9
:101CD0000000003E003E003E003E003E003E003E52
:101CE000003E003E003E003E003E003E003E003E04
:101CF000003EFF3FFF3F000000000000000000002A
:101D00000000000000001FF81FFC1FFC3FFE3FFE0C
:101D10003FFE7FFF77FF77FFF7F7E7F7E7F3E7F39C
:101D2000C7F307F007F007F007F00000000000001D
:101D3000000000000000000000000F7C0F7C0F7E00
:101D40000F7F0F7F8F7F8F7FCF7FEF7BEF79FF79C3
:101D5000FF78FF787F783F783F781F781F78000002
:101D60000000000000000000000000000000F0077C
:101D7000FC1F3E3E1F7C0F780F780FF80FF80FF80E
:101D80000FF80FF80FF80F780F781F7C3E3EFC1FFE
:101D9000F00700000000000000000000000000004C
:101DA0000000FC3FFF3F1F3E0F3E0F3E0F3E0F3E29
:101DB0001F3E3F3EFC3FF03F003E003E003E003EE7
:101DC000003E003E003E0000000000000000000059
:101DD000000000000000F007FC1F3E3E1F7C0F7853
:101DE0000F780FF80FF80FF80FF80FF80FF80F78BB
:101DF0000F781F7C3E3EFC1FF8077C003F000F0061
:101E000003000000000000000000F03FFC3F7E3CAB
:101E10003E3C1E3C1E3C3E3C3C3CFC3CF03FE03F1C
:101E2000F03DF83C7C3C3E3C1E3C1F3C0F3C00001F
:101E30000000000000000000000000000000FC079F
:101E4000FE1F0E3E003C003C003C003EC01FF80F51
:101E5000FE037F001F000F000F001F203E3CFC3FD1
:101E6000F01F000000000000000000000000000063
:101E70000000FFFFFFFFE003E003E003E003E003F7
:101E8000E003E003E003E003E003E003E003E0033A
:101E9000E003E003E0030000000000000000000099
:101EA0000000000000000F7C0F7C0F7C0F7C0F7C7B
:101EB0000F7C0F7C0F7C0F7C0F7C0F7C0F7C0F7CCA
:101EC0001E3C1E3C3E3EFC1FF007000000000000D0
:101ED0000000000000000000000007F007F007F815
:101EE0000F780F7C1E3C1E3C1E3E3C1E3C1F781F84
:101EF000780FF80FF007F007F007E003E0030000A9
:101F0000000000000000000000000000000003E0EE
:101F100003F003F007F0E7F3E7F3E7F3E773F77B8A
:101F2000F77FFF7F7F7F7F7F7E7F7E3F3E3E3E3E0F
:101F30003E3E000000000000000000000000000025
:101F4000000007F80F7C1E3E3E3E3C1FF80FF007D6
:101F5000E007E003E003F007F80F7C0F7C1E3E3C37
:101F60001F780F780FF00000000000000000000054
:101F700000000000000007F807780F7C1E3C1E3EA2
:101F80003C1F780FF80FF007E003E003E003E003E5
:101F9000E003E003E003E003E003000000000000D2
:101FA00000000000000000000000FF7FFF7F0F0026
:101FB0001F003E007C00F800F000E001E003C007D5
:101FC000800F000F001E003E007CFF7FFF7F00009F
:101FD0000000000000000000FF0780078007800766
:101FE00080078007800780078007800780078007B9
:101FF00080078007800780078007800780078007A9
:10200000800780078007FF07FF070000007800783F
:10201000003C003C001E001E000F000F80078007E0
:10202000C003C003E001E001F000F0007800780098
:102030003C003C001E001E000F000F0007000000C7
:10204000F07FF000F000F000F000F000F000F00091
:10205000F000F000F000F000F000F000F000F00000
:10206000F000F000F000F000F000F000F000F07F71
:10207000F07F0000C000C001C001E003E003F007F2
:10208000F0077807780F380F3C1E3C1E1E3C1E3CA4
:102090000F380F78077800000000000000000000F3
:1020A0000000000000000000000000000000000030
:1020B0000000000000000000000000000000000020
:1020C0000000000000000000000000000000000010
:1020D0000000FFFFFFFF000000000000F000000014
:1020E00000000000000000000000000000000000F0
:1020F00000000000000000000000000000000000E0
:1021000000000000000000000000000000000000CF
:10211000000000000000000000000000F80FFC3F7D
:102120007C3C3E003E003E00FE07FE1F3E3E3E7CE5
:102130003E783E7C7E7CFF3FCF1F00000000000009
:1021400000000000003C003C003C003C003C003C27
:10215000F83DFE3F3E3F1F3E0F3C0F3C0F3C0F3C07
:102160000F3C0F3C1F3C1E3C3E3FFC3FF03B000041
:10217000000000000000000000000000000000005F
:1021800000000000FE03FF0F871F003E003E003CE2
:10219000007C007C007C003C003E003E871FFF0F5F
:1021A000FE03000000000000000000001F001F00F0
:1021B0001F001F001F001F00FF07FF1F3F3E1F3CA7
:1021C0001F7C1F7C1F7C1F781F781F7C1F7C3F3C5F
:1021D0007F3EFF1FDF0F0000000000000000000036
:1021E000000000000000000000000000F803FC0FE9
:1021F0003E1F1E3E1F3C1F7CFF7FFF7F007C007C3C
:10220000003C003E071FFF0FFE030000000000001F
:1022100000000000FF01E103C003C007C007C007C2
:10222000FF7FFF7FC007C007C007C007C007C00708
:10223000C007C007C007C007C007C007C00700002D
:10224000000000000000000000000000000000008E
:1022500000000000EF07FF1F7F3E1F3C1F7C1F7C1C
:102260001F781F781F781F7C1F7C3F3C7F3EFF1F1D
:10227000DF0F1E001E001E007C38F83F003C003CB3
:10228000003C003C003C003CFC3DFE3F9E3F1F3FAD
:102290001F3E1F3C1F3C1F3C1F3C1F3C1F3C1F3C64
:1022A0001F3C1F3C1F3C000000000000000000001D
:1022B000F001F0010000000000000000E07FE07F7E
:1022C000E001E001E001E001E001E001E001E00106
:1022D000E001E001E001E001E00100000000000099
:1022E00000000000F800F8000000000000000000FE
:1022F000F83FF83FF800F800F800F800F800F800A0
:10230000F800F800F800F800F800F800F800F8000D
:10231000F800F000F071E07F003C003C003C003C25
:10232000003C003C1F3C3E3C7C3CF83CF03DE03D2A
:10233000C03FC03FE03FF03DF83C7C3C3E3C1F3C92
:102340001F3C00000000000000000000F07FF001D2
:10235000F001F001F001F001F001F001F001F001F5
:10236000F001F001F001F001F001F001F001F001E5
:10237000F001F001F001000000000000000000008A
:102380000000000000000000000000009EF7FFFFBA
:10239000FFFFFFFFE7FBE7F9C7F1C7F1C7F1C7F19F
:1023A000C7F1C7F1C7F1C7F1C7F100000000000095
:1023B000000000000000000000000000000000001D
:1023C000FC3DFE3F9E3F1F3F1F3E1F3C1F3C1F3CEE
:1023D0001F3C1F3C1F3C1F3C1F3C1F3C1F3C000080
:1023E00000000000000000000000000000000000ED
:1023F00000000000F007FC1F3E3E1F3C1F7C0F78D2
:102400000F780F780F780F781F7C1F3C3E3EFC1F23
:10241000F0070000000000000000000000000000C5
:102420000000000000000000F83DFE3F3E3F1F3E60
:102430000F3C0F3C0F3C0F3C0F3C0F3C1F3C1E3E23
:102440003E3FFC3FF83F003C003C003C003C003C71
:10245000000000000000000000000000EE07FE1F6A
:102460007E3E1E3C1E7C1E781E781E781E781E78CE
:102470001E7C3E7C7E3EFE1FDE0F1E001E001E00E8
:102480001E001E0000000000000000000000000010
:102490007F1FFF1FE71FC71F871F001F001F001F91
:1024A000001F001F001F001F001F001F001F000053
:1024B000000000000000000000000000000000001C
:1024C00000000000FC07FE1F0E1E003E003E003F05
:1024D000E01FFC07FE003E001E001E003E3CFC3FCD
:1024E000F01F0000000000000000000000000000DD
:1024F0000000800780078007FF7FFF7F800780073D
:102500008007800780078007800780078007800793
:10251000C007FF03FF0100000000000000000000F2
:102520000000000000000000000000001E3C1E3CF7
:102530001E3C1E3C1E3C1E3C1E3C1E3C1E3C1E3CCB
:102540003E3C7E3CFE3EFE1FDE0F00000000000011
:10255000000000000000000000000000000000007B
:1025600007F00F780F781E3C1E3C1E3E3C1E3C1EA2
:10257000780F780FF00FF007F007E003E00300009A
:10258000000000000000000000000000000000004B
:102590000000000003F0E3F1E3F3E7F3F7F3F7F3F0
:1025A000F77F777F7F7F7F7F7F7F3E3E3E3E3E3E51
:1025B0003E3E00000000000000000000000000009F
:1025C00000000000000000000F7C1E3E3C3E3C1F4F
:1025D000F80FF007F007E003F007F807F80F7C1E8C
:1025E0003E3E1F3C1F78000000000000000000007D
:1025F00000000000000000000000000007F80F7855
:102600000F7C1E3C1E3C3C1E3C1E3C1F780FF80FEE
:10261000F007F007E003E003C003C003C003800736
:10262000800F007F0000000000000000000000009C
:10263000FF3FFF3F1F003E007C00F800F001E00379
:10264000C007800F001F001E003CFF7FFF7F0000BF
:102650000000000000000000FE01E003C003C00312
:10266000C003C003E001E001E001C001C003803FFE
:10267000803FC003C001E001E001E001C003C003EE
:10268000C003C003E003FE017E000000C001C001E2
:10269000C001C001C001C001C001C001C001C00132
:1026A000C001C001C001C001C001C001C001C00122
:1026B000C001C001C001C001C001C001C0010000D3
:1026C000C03FE003E001E001E001E001C001C00320
:1026D000C003C001E001FE00FE00E001C001C00334
:1026E000C003C001E001E001E001E001E003C03F00
:1026F000003F00000000000000000000000000009B
:1027000000000000000000000000073FC77FE773E3
:10271000FFF17EF00000000000000000000000005B
:1027200000000000000000000000000000000000A9
:1027300001020304060708095827000800000020CA
:102740001800000016130008702700081800002069
:102750005804000026130008101A0000DC130008BB
:102760000100000010000000000000000024F40040
:04000005080000ED02
:00000001FF
